{
  "_format": "hh-sol-artifact-1",
  "contractName": "WavePortal",
  "sourceName": "contracts/WavePortal.sol",
  "abi": [
    {
      "inputs": [],
      "stateMutability": "payable",
      "type": "constructor"
    },
    {
      "anonymous": false,
      "inputs": [
        {
          "indexed": true,
          "internalType": "address",
          "name": "from",
          "type": "address"
        },
        {
          "indexed": false,
          "internalType": "uint256",
          "name": "timestamp",
          "type": "uint256"
        },
        {
          "indexed": false,
          "internalType": "string",
          "name": "message",
          "type": "string"
        }
      ],
      "name": "NewMeme",
      "type": "event"
    },
    {
      "inputs": [],
      "name": "getAllMemes",
      "outputs": [
        {
          "components": [
            {
              "internalType": "address",
              "name": "memer",
              "type": "address"
            },
            {
              "internalType": "string",
              "name": "message",
              "type": "string"
            },
            {
              "internalType": "uint256",
              "name": "timestamp",
              "type": "uint256"
            }
          ],
          "internalType": "struct WavePortal.Meme[]",
          "name": "",
          "type": "tuple[]"
        }
      ],
      "stateMutability": "view",
      "type": "function"
    },
    {
      "inputs": [],
      "name": "getTotalMemes",
      "outputs": [
        {
          "internalType": "uint256",
          "name": "",
          "type": "uint256"
        }
      ],
      "stateMutability": "view",
      "type": "function"
    },
    {
      "inputs": [
        {
          "internalType": "address",
          "name": "",
          "type": "address"
        }
      ],
      "name": "lastMemedAt",
      "outputs": [
        {
          "internalType": "uint256",
          "name": "",
          "type": "uint256"
        }
      ],
      "stateMutability": "view",
      "type": "function"
    },
    {
      "inputs": [
        {
          "internalType": "string",
          "name": "_message",
          "type": "string"
        }
      ],
      "name": "meme",
      "outputs": [],
      "stateMutability": "nonpayable",
      "type": "function"
    }
  ],
  "bytecode": "0x60806040526200004f6040518060400160405280601981526020017f57652068617665206265656e20636f6e737472756374656421000000000000008152506200007760201b620006401760201c565b606444426200005f91906200017c565b6200006b9190620001e6565b600081905550620002dc565b62000117816040516024016200008e9190620002b8565b6040516020818303038152906040527f41304fac000000000000000000000000000000000000000000000000000000007bffffffffffffffffffffffffffffffffffffffffffffffffffffffff19166020820180517bffffffffffffffffffffffffffffffffffffffffffffffffffffffff83818316178352505050506200011a60201b60201c565b50565b60008151905060006a636f6e736f6c652e6c6f679050602083016000808483855afa5050505050565b6000819050919050565b7f4e487b7100000000000000000000000000000000000000000000000000000000600052601160045260246000fd5b6000620001898262000143565b9150620001968362000143565b9250828201905080821115620001b157620001b06200014d565b5b92915050565b7f4e487b7100000000000000000000000000000000000000000000000000000000600052601260045260246000fd5b6000620001f38262000143565b9150620002008362000143565b925082620002135762000212620001b7565b5b828206905092915050565b600081519050919050565b600082825260208201905092915050565b60005b838110156200025a5780820151818401526020810190506200023d565b60008484015250505050565b6000601f19601f8301169050919050565b600062000284826200021e565b62000290818562000229565b9350620002a28185602086016200023a565b620002ad8162000266565b840191505092915050565b60006020820190508181036000830152620002d4818462000277565b905092915050565b61132580620002ec6000396000f3fe608060405234801561001057600080fd5b506004361061004c5760003560e01c8063565dcaa81461005157806386ef269f1461006f5780638be4753a1461009f578063e20645a6146100bb575b600080fd5b6100596100d9565b6040516100669190610a36565b60405180910390f35b61008960048036038101906100849190610a98565b61022a565b6040516100969190610ad4565b60405180910390f35b6100b960048036038101906100b49190610c24565b610242565b005b6100c36105f5565b6040516100d09190610ad4565b60405180910390f35b60606002805480602002602001604051908101604052809291908181526020016000905b8282101561022157838290600052602060002090600302016040518060600160405290816000820160009054906101000a900473ffffffffffffffffffffffffffffffffffffffff1673ffffffffffffffffffffffffffffffffffffffff1673ffffffffffffffffffffffffffffffffffffffff16815260200160018201805461018690610c9c565b80601f01602080910402602001604051908101604052809291908181526020018280546101b290610c9c565b80156101ff5780601f106101d4576101008083540402835291602001916101ff565b820191906000526020600020905b8154815290600101906020018083116101e257829003601f168201915b50505050508152602001600282015481525050815260200190600101906100fd565b50505050905090565b60036020528060005260406000206000915090505481565b42610384600360003373ffffffffffffffffffffffffffffffffffffffff1673ffffffffffffffffffffffffffffffffffffffff168152602001908152602001600020546102909190610cfc565b106102d0576040517f08c379a00000000000000000000000000000000000000000000000000000000081526004016102c790610d8d565b60405180910390fd5b42600360003373ffffffffffffffffffffffffffffffffffffffff1673ffffffffffffffffffffffffffffffffffffffff1681526020019081526020016000208190555060018060008282546103269190610cfc565b9250508190555061036c6040518060400160405280601381526020017f2573206861732073656e742061206d656d652100000000000000000000000000815250336106d9565b600260405180606001604052803373ffffffffffffffffffffffffffffffffffffffff16815260200183815260200142815250908060018154018082558091505060019003906000526020600020906003020160009091909190915060008201518160000160006101000a81548173ffffffffffffffffffffffffffffffffffffffff021916908373ffffffffffffffffffffffffffffffffffffffff16021790555060208201518160010190816104249190610f59565b50604082015181600201555050606460005442446104429190610cfc565b61044c9190610cfc565b610456919061105a565b6000819055506032600054116105a2576104a56040518060400160405280600781526020017f257320776f6e2100000000000000000000000000000000000000000000000000815250336106d9565b6000655af3107a40009050478111156104f3576040517f08c379a00000000000000000000000000000000000000000000000000000000081526004016104ea906110fd565b60405180910390fd5b60003373ffffffffffffffffffffffffffffffffffffffff16826040516105199061114e565b60006040518083038185875af1925050503d8060008114610556576040519150601f19603f3d011682016040523d82523d6000602084013e61055b565b606091505b505090508061059f576040517f08c379a0000000000000000000000000000000000000000000000000000000008152600401610596906111d5565b60405180910390fd5b50505b3373ffffffffffffffffffffffffffffffffffffffff167f5162a244fe825a87a827869cc716c9fb1e08eb37783d9799cca5be8b68dc386a42836040516105ea92919061122e565b60405180910390a250565b60006106386040518060400160405280601781526020017f5765206861766520256420746f74616c206d656d657321000000000000000000815250600154610775565b600154905090565b6106d681604051602401610654919061125e565b6040516020818303038152906040527f41304fac000000000000000000000000000000000000000000000000000000007bffffffffffffffffffffffffffffffffffffffffffffffffffffffff19166020820180517bffffffffffffffffffffffffffffffffffffffffffffffffffffffff8381831617835250505050610811565b50565b61077182826040516024016106ef92919061128f565b6040516020818303038152906040527f319af333000000000000000000000000000000000000000000000000000000007bffffffffffffffffffffffffffffffffffffffffffffffffffffffff19166020820180517bffffffffffffffffffffffffffffffffffffffffffffffffffffffff8381831617835250505050610811565b5050565b61080d828260405160240161078b9291906112bf565b6040516020818303038152906040527fb60e72cc000000000000000000000000000000000000000000000000000000007bffffffffffffffffffffffffffffffffffffffffffffffffffffffff19166020820180517bffffffffffffffffffffffffffffffffffffffffffffffffffffffff8381831617835250505050610811565b5050565b60008151905060006a636f6e736f6c652e6c6f679050602083016000808483855afa5050505050565b600081519050919050565b600082825260208201905092915050565b6000819050602082019050919050565b600073ffffffffffffffffffffffffffffffffffffffff82169050919050565b600061089182610866565b9050919050565b6108a181610886565b82525050565b600081519050919050565b600082825260208201905092915050565b60005b838110156108e15780820151818401526020810190506108c6565b60008484015250505050565b6000601f19601f8301169050919050565b6000610909826108a7565b61091381856108b2565b93506109238185602086016108c3565b61092c816108ed565b840191505092915050565b6000819050919050565b61094a81610937565b82525050565b60006060830160008301516109686000860182610898565b506020830151848203602086015261098082826108fe565b91505060408301516109956040860182610941565b508091505092915050565b60006109ac8383610950565b905092915050565b6000602082019050919050565b60006109cc8261083a565b6109d68185610845565b9350836020820285016109e885610856565b8060005b85811015610a245784840389528151610a0585826109a0565b9450610a10836109b4565b925060208a019950506001810190506109ec565b50829750879550505050505092915050565b60006020820190508181036000830152610a5081846109c1565b905092915050565b6000604051905090565b600080fd5b600080fd5b610a7581610886565b8114610a8057600080fd5b50565b600081359050610a9281610a6c565b92915050565b600060208284031215610aae57610aad610a62565b5b6000610abc84828501610a83565b91505092915050565b610ace81610937565b82525050565b6000602082019050610ae96000830184610ac5565b92915050565b600080fd5b600080fd5b7f4e487b7100000000000000000000000000000000000000000000000000000000600052604160045260246000fd5b610b31826108ed565b810181811067ffffffffffffffff82111715610b5057610b4f610af9565b5b80604052505050565b6000610b63610a58565b9050610b6f8282610b28565b919050565b600067ffffffffffffffff821115610b8f57610b8e610af9565b5b610b98826108ed565b9050602081019050919050565b82818337600083830152505050565b6000610bc7610bc284610b74565b610b59565b905082815260208101848484011115610be357610be2610af4565b5b610bee848285610ba5565b509392505050565b600082601f830112610c0b57610c0a610aef565b5b8135610c1b848260208601610bb4565b91505092915050565b600060208284031215610c3a57610c39610a62565b5b600082013567ffffffffffffffff811115610c5857610c57610a67565b5b610c6484828501610bf6565b91505092915050565b7f4e487b7100000000000000000000000000000000000000000000000000000000600052602260045260246000fd5b60006002820490506001821680610cb457607f821691505b602082108103610cc757610cc6610c6d565b5b50919050565b7f4e487b7100000000000000000000000000000000000000000000000000000000600052601160045260246000fd5b6000610d0782610937565b9150610d1283610937565b9250828201905080821115610d2a57610d29610ccd565b5b92915050565b600082825260208201905092915050565b7f576169742031356d000000000000000000000000000000000000000000000000600082015250565b6000610d77600883610d30565b9150610d8282610d41565b602082019050919050565b60006020820190508181036000830152610da681610d6a565b9050919050565b60008190508160005260206000209050919050565b60006020601f8301049050919050565b600082821b905092915050565b600060088302610e0f7fffffffffffffffffffffffffffffffffffffffffffffffffffffffffffffffff82610dd2565b610e198683610dd2565b95508019841693508086168417925050509392505050565b6000819050919050565b6000610e56610e51610e4c84610937565b610e31565b610937565b9050919050565b6000819050919050565b610e7083610e3b565b610e84610e7c82610e5d565b848454610ddf565b825550505050565b600090565b610e99610e8c565b610ea4818484610e67565b505050565b5b81811015610ec857610ebd600082610e91565b600181019050610eaa565b5050565b601f821115610f0d57610ede81610dad565b610ee784610dc2565b81016020851015610ef6578190505b610f0a610f0285610dc2565b830182610ea9565b50505b505050565b600082821c905092915050565b6000610f3060001984600802610f12565b1980831691505092915050565b6000610f498383610f1f565b9150826002028217905092915050565b610f62826108a7565b67ffffffffffffffff811115610f7b57610f7a610af9565b5b610f858254610c9c565b610f90828285610ecc565b600060209050601f831160018114610fc35760008415610fb1578287015190505b610fbb8582610f3d565b865550611023565b601f198416610fd186610dad565b60005b82811015610ff957848901518255600182019150602085019450602081019050610fd4565b868310156110165784890151611012601f891682610f1f565b8355505b6001600288020188555050505b505050505050565b7f4e487b7100000000000000000000000000000000000000000000000000000000600052601260045260246000fd5b600061106582610937565b915061107083610937565b9250826110805761107f61102b565b5b828206905092915050565b7f547279696e6720746f207769746864726177206d6f7265206d6f6e657920746860008201527f616e207468657920636f6e7472616374206861732e0000000000000000000000602082015250565b60006110e7603583610d30565b91506110f28261108b565b604082019050919050565b60006020820190508181036000830152611116816110da565b9050919050565b600081905092915050565b50565b600061113860008361111d565b915061114382611128565b600082019050919050565b60006111598261112b565b9150819050919050565b7f4661696c656420746f207769746864726177206d6f6e65792066726f6d20636f60008201527f6e74726163742e00000000000000000000000000000000000000000000000000602082015250565b60006111bf602783610d30565b91506111ca82611163565b604082019050919050565b600060208201905081810360008301526111ee816111b2565b9050919050565b6000611200826108a7565b61120a8185610d30565b935061121a8185602086016108c3565b611223816108ed565b840191505092915050565b60006040820190506112436000830185610ac5565b818103602083015261125581846111f5565b90509392505050565b6000602082019050818103600083015261127881846111f5565b905092915050565b61128981610886565b82525050565b600060408201905081810360008301526112a981856111f5565b90506112b86020830184611280565b9392505050565b600060408201905081810360008301526112d981856111f5565b90506112e86020830184610ac5565b939250505056fea2646970667358221220272bb109f14f19ce1de0f5d534c28c19cc1c5cda9a2586568ee28b31da95e44a64736f6c63430008110033",
  "linkReferences": {},
  "deployedLinkReferences": {}
}